:030000000208C92A
:0C08C900787FE4F6D8FD75810702080076
:10080000D293D292D291D290C2902094077FF97E57
:10081000001208D5D293D292D291D290C291209553
:10082000077FA47E001208D5D293D292D291D290A3
:10083000C2922096077FB07E001208D5D293D29242
:10084000D291D290C2912094077F997E001208D550
:10085000C293C292C291C290C2912095077F927EAC
:10086000001208D5C293C292C291C290C291209642
:10087000077F827E001208D5C293C292C291C290B5
:10088000C2922094077FF87E001208D5C293C292CC
:10089000C291C290C2922095077F807E001208D537
:1008A000C293C292C291C290C2922096077F907E5C
:1008B000001208D5C293C292C291C290C2932095F1
:0908C000077FC07E001208D5225A
:0608D500E4F5A08FA02253
:00000001FF
